:040000008A11112828
:10000800FE00030EF8000408F9000A08FA0083123B
:1000180003137F08FB008A11232B8A1113287030E1
:10002800840076308A1150238A118313203084008B
:1000380042308A1150238A11A0308400F0308A118E
:10004800502383018A1128288A11FF228A11FF3040
:10005800831203138500061606178A11CF228A1108
:100068000030831203133502063003193402031CCF
:1000780043288701850106120613B401B5018A11C8
:100088005B238A1183120313CE0009304E02031C2E
:100098003128FF308500061606178A1158238A1161
:1000A8008A11B7208A118A1139218A118312031300
:1000B80020088700FE3085000D3083120313CF001F
:1000C800FB30CE00CE0B6628CF0B66280000FF3031
:1000D8008312031385000616061721088700FD30D2
:1000E80085000D3083120313CF00FB30CE00CE0BFA
:1000F8007B28CF0B7B280000FF3083120313850079
:100108000616061722088700FB3085000D3083127B
:100118000313CF00FB30CE00CE0B9028CF0B9028D6
:100128000000FF3083120313850006160617230804
:1001380087001F3085000D3083120313CF00FB307A
:10014800CE00CE0BA528CF0BA5280000FF308312C8
:100158000313850006160617B801B901B601B701E1
:10016800B401B5013128831603132008D03E831249
:100178000313C6004608F500831603132108D03E72
:1001880083120313C6004608F0000A30C60046086A
:10019800C20075088A113D238A1170078312031360
:1001A800C7004708C1004108053EC6004608C1000F
:1001B800831603132208D03E83120313C600460891
:1001C800F500831603132308D03E83120313C600D9
:1001D8004608F0000A30C6004608C20075088A11B1
:1001E8003D238A11700783120313C7004708C00014
:1001F80040081E3EC6004608C000831603132408A4
:10020800D03E83120313C6004608F5008316031375
:100218002508D03E83120313C6004608F0000A30B2
:10022800C6004608C20075088A113D238A11700766
:1002380083120313C7004708BF003C304002031C69
:100248002F294008C43EC6004608C0004108013EA8
:10025800C6004608C10018304102031C08004108C6
:10026800E83EC6004608C10008000A30831203139E
:10027800C2000030C3004108CB00CC014B08C400C9
:100288004C08C5008A1127228A11831203134208D9
:10029800CD004D08A0000A30C2000030C30041085C
:1002A800CB00CC014B08C4004C08C5008A1182223F
:1002B8008A11831203134208CD004D08A1000A30A9
:1002C800C2000030C3004008CB00CC014B08C4007A
:1002D8004C08C5008A1127228A1183120313420889
:1002E800CD004D08A2000A30C2000030C30040080B
:1002F800CB00CC014B08C4004C08C5008A118222EF
:100308008A11831203134208CD004D08A3000A3056
:10031800C2000030C3003F08CB00CC014B08C4002A
:100328004C08C5008A1127228A1183120313420838
:10033800CD004D08A4000A30C2000030C3003F08B9
:10034800CB00CC014B08C4004C08C5008A1182229E
:10035800831203134208CD004D08A500080083123C
:1003680003131A08F6007608F70024307706031DF1
:10037800C029F201F20A08007203031DCC29473094
:100388007706031D08000230F6007608F200080020
:1003980002307206031DD92950307706031D080064
:1003A8000330F6007608F200080003307206031DD9
:1003B800E62947307706031D08000430F600760862
:1003C800F200080004307206031DF329473077064F
:1003D800031D08000530F6007608F2000800053015
:1003E8007206031D002A41307706031D08000630F7
:1003F800F6007608F200080006307206031D0D2A82
:100408002C307706031D08000830F6007608F20045
:10041800080008307206031D08007708F600740803
:10042800A03E84007608831380000130F600760829
:10043800F4077408F6007608F30009307302031C09
:100448000800F201080083120313C801C31F332AEE
:10045800C209C309C20A0319C30AC801C80AC51FC9
:100468003E2AC409C509C40A0319C50A0130C600D1
:100478004608C806C901CA01420843040319752A77
:10048800C701C70AC31B542A01300310C20DC30D8C
:10049800FF3E031D492A0130C6004608C707462A01
:1004A80001300310C90DCA0DFF3E031D552A43082C
:1004B8004502031D612A42084402031C6A2A4208B5
:1004C800C4024308031CC503C502491401300310C4
:1004D800C30CC20CFF3E031D6B2A0130C702031D6B
:1004E800542A480803197D2AC909CA09C90A0319DF
:1004F800CA0A4A08C3004908C20008008312031345
:10050800C801C51F8E2AC409C509C40A0319C50A2A
:10051800C801C80AC31F952AC209C309C20A031918
:10052800C30A420843040319C22AC701C70AC31BE6
:10053800A92A01300310C20DC30DFF3E031D9E2AD8
:100548000130C6004608C7079B2A43084502031D19
:10055800AF2A42084402031CB72A4208C4024308CF
:10056800031CC503C50201300310C30CC20CFF3EB7
:10057800031DB82A0130C702031DA92A4808031918
:10058800CA2AC409C509C40A0319C50A4508C3000B
:100598004408C2000800013083120313B807031887
:1005A800B90A0030B90775303902313003193802F9
:1005B800031CEC2A0130B4070318B50A0030B5074C
:1005C800B801B9010130B6070318B70A0030B707F8
:1005D80003303502E93003193402031CF52AB4014B
:1005E800B501003037020A3003193602031C08002F
:1005F800B601B70108007530831603138F00850113
:1006080087018601831203179E019F018B170B1721
:10061800831603138616283098008030831203133C
:1006280098000C308316031399009A0118119B1136
:100638008C16831203138C12181698170800831649
:1006480003138C1E312B831203138C1E312B8A113A
:10065800B3218A11831203138C127B088312FF00C3
:100668007A088A0079088400780E8300FE0E7E0ED0
:10067800090083120313C500C401451C472B420817
:10068800C3004308C4070310C20D0310C50C450876
:10069800031D412B4408080064008001840A0406F5
:1006A800031900340406512BF401F3010800730800
:0206B800080038
:02400E00D4F0EC
:00000001FF
