:040000008A11112828
:10000800FE00030EF8000408F9000A08FA0083123B
:1000180003137F08FB008A11A02C8A111328703063
:10002800840076308A11CD248A118313203084000D
:1000380048308A11CD248A11A0308400F0308A110A
:10004800CD2483018A1128288A117C248A11FF3043
:10005800831203138500D601D7019128FF3085004C
:100068008A11D5248A118A11F2208A118A119D21B8
:100078008A118312031320088700FE3085000D3093
:1000880083120313D500FB30D400D40B4928D50BB9
:1000980049280000FF3083120313850021088700D8
:1000A800FD3085000D3083120313D500FB30D400DA
:1000B800D40B5C28D50B5C280000FF308312031397
:1000C800850022088700FB3085000D30831203135A
:1000D800D500FB30D400D40B6F28D50B6F28000057
:1000E800FF3083120313850023088700DF30850063
:1000F8000D3083120313D500FB30D400D40B8228B3
:10010800D50B82280000FF30831203138500B80145
:10011800B901B601B701B401B5018A118B228A1160
:100128008A11D8248A1183120313D4000930540287
:1001380003183228FF3085008A11FA228A118312A7
:10014800031320088700FE3085000D308312031347
:10015800D500FB30D400D40BAF28D50BAF28000056
:10016800FF3083120313850021088700FD308500C6
:100178000D3083120313D500FB30D400D40BC228F2
:10018800D50BC2280000FF30831203138500220814
:100198008700FB3085000D3083120313D500FB3038
:1001A800D400D40BD528D50BD5280000FF308312F6
:1001B8000313850023088700DF3085000D30831284
:1001C8000313D500FB30D400D40BE828D50BE8285E
:1001D8000000FF3083120313850091288316031350
:1001E8002008D03E83120313CC004C08F500831678
:1001F80003132108D03E83120313CC004C08F000EF
:100208000A30CC004C08C80075088A11BA248A1133
:10021800700783120313CD004D08C7004708053E39
:10022800CC004C08C700831603132208D03E831263
:100238000313CC004C08F500831603132308D03EA3
:1002480083120313CC004C08F0000A30CC004C0891
:10025800C80075088A11BA248A117007831203131B
:10026800CD004D08C60046081E3ECC004C08C6000E
:10027800831603132408D03E83120313CC004C08C2
:10028800F500831603132508D03E83120313CC0010
:100298004C08F0000A30CC004C08C80075088A11D8
:1002A800BA248A11700783120313CD004D08C500C4
:1002B8003C304602031C6A294608C43ECC004C0860
:1002C800C6004708013ECC004C08C7001930470259
:1002D800031C73294708E83ECC004C08C7000C30C3
:1002E8004702031C7D291830470203187D29061789
:1002F8007E2906130D304702031C87294708F43E60
:10030800CC004C08C7004708CC00CD014C08BE0003
:100318004D08BF004608CC00CD014C08BC004D0874
:10032800BD004508CC00CD014C08BA004D08BB0003
:1003380008000A3083120313C8000030C9004708B8
:10034800D100D2015108CA005208CB008A11622399
:100358008A11831203134808D3005308A0000A30F7
:10036800C8000030C9004708D100D2015108CA00AE
:100378005208CB008A11BD238A118312031348083F
:10038800D3005308A1000A30C8000030C90046084D
:10039800D100D2015108CA005208CB008A11622349
:1003A8008A11831203134808D3005308A2000A30A5
:1003B800C8000030C9004608D100D2015108CA005F
:1003C8005208CB008A11BD238A11831203134808EF
:1003D800D3005308A3000A30C8000030C9004508FC
:1003E800D100D2015108CA005208CB008A116223F9
:1003F8008A11831203134808D3005308A4000A3053
:10040800C8000030C9004508D100D2015108CA000F
:100418005208CB008A11BD23831203134808D30066
:100428005308A5000800831203131A08F60076087B
:10043800F70024307706031D242AF201F20A080087
:100448007203031D302A47307706031D0800023067
:10045800F6007608F200080002307206031D3D2AF5
:1004680050307706031D08000330F6007608F200C6
:10047800080003307206031D4A2A47307706031D19
:1004880008000430F6007608F2000800043072060E
:10049800031D572A47307706031D08000530F6006C
:1004A8007608F200080005307206031D642A413000
:1004B8007706031D08000630F6007608F2000800EB
:1004C80006307206031D712A2C307706031D0800BA
:1004D8000830F6007608F200080008307206031D9E
:1004E80008007708F6007408A03E84007608831395
:1004F80080000130F6007608F4077408F6007608E4
:10050800F30009307302031C0800F20108000130EF
:1005180083120313B8070318B90A0030B90700306B
:1005280039022E3003193802031CE72A0130B407B8
:100538000318B50A0030B5070130BA070318BB0A1B
:100548000030BB07B801B9010130B6070318B70A74
:100558000030B7070310061E0314031CB72A8312C2
:1005680003130616BA2A83120313061200303B023D
:100578003C3003193A02031CE72ABA01BB010130D7
:10058800BC070318BD0A0030BD0700303D023C30EF
:1005980003193C02031CE72A0130BE070318BF0AEF
:1005A8000030BF07BC01BD01BA01BB0100303F02EA
:1005B8000D3003193E02031CE72ABE01BF01BC012E
:1005C800BD01BA01BB0103303502E9300319340219
:1005D800031CF02AB401B501003037020A300319B0
:1005E8003602031C0800B601B70108000A3083125E
:1005F8000313C8000030C9003F08CB003E08CA00FA
:100608008A110A248A11831203134808D00050085B
:10061800A0000A30C8000030C9003F08CB003E08DF
:10062800CA008A1148248A11831203134808D0008B
:100638005008A1000A30C8000030C9003D08CB00AE
:100648003C08CA008A110A248A1183120313480835
:10065800D0005008A2000A30C8000030C9003D0888
:10066800CB003C08CA008A1148248A11831203135C
:100678004808D0005008A3000A30C8000030C9005C
:100688003B08CB003A08CA008A110A248A1183124F
:1006980003134808D0005008A4000A30C8000030EE
:1006A800C9003B08CB003A08CA008A1148248312C3
:1006B80003134808D0005008A5000800831203134C
:1006C800CE01C91F6E2BC809C909C80A0319C90A6E
:1006D800CE01CE0ACB1F792BCA09CB09CA0A031946
:1006E800CB0A0130CC004C08CE06CF01D001480817
:1006F80049040319B02BCD01CD0AC91B8F2B01303A
:100708000310C80DC90DFF3E031D842B0130CC001A
:100718004C08CD07812B01300310CF0DD00DFF3EC3
:10072800031D902B49084B02031D9C2B48084A02C5
:10073800031CA52B4808CA024908031CCB03CB029B
:100748004F1401300310C90CC80CFF3E031DA62B23
:100758000130CD02031D8F2B4E080319B82BCF098A
:10076800D009CF0A0319D00A5008C9004F08C80099
:10077800080083120313CE01CB1FC92BCA09CB096A
:10078800CA0A0319CB0ACE01CE0AC91FD02BC80941
:10079800C909C80A0319C90A480849040319FD2BDD
:1007A800CD01CD0AC91BE42B01300310C80DC90DBA
:1007B800FF3E031DD92B0130CC004C08CD07D62BAA
:1007C80049084B02031DEA2B48084A02031CF22B76
:1007D8004808CA024908031CCB03CB0201300310A6
:1007E800C90CC80CFF3E031DF32B0130CD02031DBD
:1007F800E42B4E080319052CCA09CB09CA0A0319A8
:10080800CB0A4B08C9004A08C80008008312031322
:10081800CE01CF01480849040319432CCD01CD0A64
:10082800C91B222C01300310C80DC90DFF3E031D42
:10083800172C0130CC004C08CD07142C01300310C4
:10084800CE0DCF0DFF3E031D232C49084B02031D7F
:100858002F2C48084A02031C382C4808CA024908A9
:10086800031CCB03CB024E1401300310C90CC80C77
:10087800FF3E031D392C0130CD02031D222C4F08E9
:10088800C9004E08C8000800831203134808490429
:100898000319772CCD01CD0AC91B5E2C013003103A
:1008A800C80DC90DFF3E031D532C0130CC004C0868
:1008B800CD07502C49084B02031D642C48084A02F6
:1008C800031C6C2C4808CA024908031CCB03CB0242
:1008D80001300310C90CC80CFF3E031D6D2C0130FC
:1008E800CD02031D5E2C4B08C9004A08C800080049
:1008F8007530831603138F008501870186018312E3
:1009080003179E019F018B170B1783160313861677
:100918002830980080308312031398000C30831617
:10092800031399009A0118119B118C168312031353
:100938008C12181698170800831603138C1EAE2CF9
:10094800831203138C1EAE2C8A1117228A1183126C
:1009580003138C127B088312FF007A088A00790837
:100968008400780E8300FE0E7E0E090083120313A6
:10097800CB00CA014B1CC42C4808C9004908CA0747
:100988000310C80D0310CB0C4B08031DBE2C4A08DE
:10099800080064008001840A040603190034040670
:0C09A800CE2CF401F301080073080800D5
:02400E0094F02C
:00000001FF
