:040000008A11F02F42
:10000800F5007508F4007408F6000130F2020030BB
:10001800031CF303F302720A0319730A0319080095
:100028007008F40076088400740883138000013097
:10003800F4007408F60709285330F000F00B222862
:1000480083120313203084001E30C7000030CF0015
:10005800CF15801B3028372887150000800D8711A1
:10006800CF0B2D283D2887158711800DCF0B2D2804
:100078003D28840AC70B2C280800F9007408F700EB
:100088007708FB007908F7007708FA000130F502D5
:100098000030031CF603F602750A0319760A0319E1
:1000A80008007B08840083130008F7007708F8002D
:1000B8000130F7007708FB077808F7007A08840012
:1000C800770880000130F7007708FA074A280313F9
:1000D8004408C9004508CA004608CB000530CD00D1
:1000E8004D08CC008A15BB248A11831203134408D7
:1000F800C9004508CA004608CB000630CD004D08A7
:10010800CC008A15BB248A11831203134408C90042
:100118004508CA004608CB000730CD004D08CC0082
:100128008A15BB248A11831203134408C9004508A1
:10013800CA004608CB000830CD004D08CC008A150F
:10014800BB248A11831203134408C9004508CA0056
:100158004608CB000930CD004D08CC008A15BB24D9
:100168008A118A1120208A110D3083120313CE00C0
:10017800FB30CD00CD0BBE28CE0BBE2800008A1563
:1001880078248A11343083120313CE00F130CD0065
:10019800CD0BCC28CE0BCC280000831203134108CA
:1001A800C9004208CA004308CB00CC018A15BB2409
:1001B8008A11831203134108C9004208CA00430880
:1001C800CB00CC01CC0A8A15BB248A1183120313F5
:1001D8004108C9004208CA004308CB000230CD00DC
:1001E8004D08CC008A15BB248A11831203134108D9
:1001F800C9004208CA004308CB000330CD004D08AF
:10020800CC008A15BB248A11831203134108C90044
:100218004208CA004308CB000430CD004D08CC008A
:100228008A15BB248A11831203134108C9004208A6
:10023800CA004308CB000530CD004D08CC008A1514
:10024800BB248A11831203134108C9004208CA005B
:100258004308CB000630CD004D08CC008A15BB24DE
:100268008A11831203134108C9004208CA004308CF
:10027800CB000730CD004D08CC008A15BB248A116D
:10028800831203134108C9004208CA004308CB007F
:100298000830CD004D08CC008A15BB248A11831282
:1002A80003134108C9004208CA004308CB000930BB
:1002B800CD004D08CC008A15BB248A118A11202054
:1002C8008A110D3083120313CE00FB30CD00CD0B05
:1002D8006B29CE0B6B2900008A1578248A118312AA
:1002E80003134108C9004208CA004308CB00CC01E7
:1002F8008A15BB248A11831203134108C9004208D6
:10030800CA004308CB00CC01CC0A8A15BB248A1149
:10031800831203134108C9004208CA004308CB00EE
:100328000230CD004D08CC008A15BB248A118312F7
:1003380003134108C9004208CA004308CB00033030
:10034800CD004D08CC008A15BB248A1183120313F3
:100358004108C9004208CA004308CB000430CD0058
:100368004D08CC008A15BB248A1183120313410857
:10037800C9004208CA004308CB000530CD004D082B
:10038800CC008A15BB248A11831203134108C900C3
:100398004208CA004308CB000630CD004D08CC0007
:1003A8008A15BB248A11831203134108C900420825
:1003B800CA004308CB000730CD004D08CC008A1591
:1003C800BB248A11831203134108C9004208CA00DA
:1003D8004308CB000830CD004D08CC008A15BB245B
:1003E8008A11831203134108C9004208CA0043084E
:1003F800CB000930CD004D08CC008A15BB248A11EA
:100408008A1120208A110D3083120313CE00FB308D
:10041800CD00CD0B0D2ACE0B0D2A00008A157824AD
:100428008A11831203134108C9004208CA0043080D
:10043800CB00CC018A15BB248A118312031341080F
:10044800C9004208CA004308CB00CC01CC0A8A156F
:10045800BB248A118A1120208A110D3083120313BC
:10046800CE00FB30CD00CD0B372ACE0B372A00004B
:100478008A1578248A11831203134108C900420897
:10048800CA004308CB00CC018A15BB248A11831209
:1004980003134108C9004208CA004308CB00CC0135
:1004A800CC0A8A15BB248A118A1120208A110D30A2
:1004B80083120313CE00FB30CD00CD0B612ACE0B87
:1004C800612A00008A1578248A11831203134108CF
:1004D800C9004208CA004308CB00CC018A15BB24D6
:1004E8008A11831203134108C9004208CA0043084D
:1004F800CB00CC01CC0A8A15BB248A118A11202092
:100508008A110D3083120313CE00FB30CD00CD0BC2
:100518008B2ACE0B8B2A00008A1578248A11831225
:1005280003134108C9004208CA004308CB00CC01A4
:100538008A15BB248A11831203134108C900420893
:10054800CA004308CB00CC01CC0A8A15BB248A1107
:100558008A1120208A110D3083120313CE00FB303C
:10056800CD00CD0BB52ACE0BB52A00008A1578240C
:100578008A11831203134108C9004208CA004308BC
:10058800CB00CC018A15BB248A11831203134108BE
:10059800C9004208CA004308CB00CC01CC0A8A151E
:1005A800BB248A118A1120208A110D30831203136B
:1005B800CE00FB30CD00CD0BDF2ACE0BDF2A0000AA
:1005C8008A1578248A11831203134108C900420846
:1005D800CA004308CB00CC018A15BB248A118312B8
:1005E80003134108C9004208CA004308CB00CC01E4
:1005F800CC0A8A15BB248A118A1120208A110D3051
:1006080083120313CE00FB30CD00CD0B092BCE0B8C
:10061800092B00008A1578248A11831203134108D4
:10062800C9004208CA004308CB00CC018A15BB2484
:100638008A11831203134108C9004208CA004308FB
:10064800CB00CC01CC0A8A15BB248A118312031370
:100658004108C9004208CA004308CB000230CD0057
:100668004D08CC008A15BB248A1183120313410854
:10067800C9004208CA004308CB000330CD004D082A
:10068800CC008A15BB248A11831203134108C900C0
:100698004208CA004308CB000430CD004D08CC0006
:1006A8008A15BB248A11831203134108C900420822
:1006B800CA004308CB000530CD004D08CC008A1590
:1006C800BB248A11831203134108C9004208CA00D7
:1006D8004308CB000630CD004D08CC008A15BB245A
:1006E8008A11831203134108C9004208CA0043084B
:1006F800CB000730CD004D08CC008A15BB248A11E9
:10070800831203134108C9004208CA004308CB00FA
:100718000830CD004D08CC008A15BB248A118312FD
:1007280003134108C9004208CA004308CB00093036
:10073800CD004D08CC008A15BB248A118A112020CF
:100748008A110D3083120313CE00FB30CD00CD0B80
:10075800AB2BCE0BAB2B00008A1578248A118312A1
:1007680003134108C9004208CA004308CB00CC0162
:100778008A15BB248A11831203134108C900420851
:10078800CA004308CB00CC01CC0A8A15BB248A11C5
:10079800831203134108C9004208CA004308CB006A
:1007A8000230CD004D08CC008A15BB248A11831273
:1007B80003134108C9004208CA004308CB000330AC
:1007C800CD004D08CC008A15BB248A11831203136F
:1007D8004108C9004208CA004308CB000430CD00D4
:1007E8004D08CC008A15BB248A11831203134108D3
:1007F800C9004208CA004308CB000530CD004D08A7
:10080800CC008A15BB248A11831203134108C9003E
:100818004208CA004308CB000630CD004D08CC0082
:100828008A15BB248A11831203134108C9004208A0
:10083800CA004308CB000730CD004D08CC008A150C
:10084800BB248A11831203134108C9004208CA0055
:100858004308CB000830CD004D08CC008A15BB24D6
:100868008A11831203134108C9004208CA004308C9
:10087800CB000930CD004D08CC008A15BB248A1165
:100888008A1120208A110D3083120313CE00FB3009
:10089800CD00CD0B4D2CCE0B4D2C00008A157824A5
:1008A8008A11343083120313CE00F130CD00CD0B02
:1008B8005B2CCE0B5B2C0000831203133E08C9008F
:1008C8003F08CA004008CB00CC018A15BB248A1116
:1008D800831203133E08C9003F08CA004008CB0032
:1008E800CC01CC0A8A15BB248A11831203133E0853
:1008F800C9003F08CA004008CB000230CD004D08AF
:10090800CC008A15BB248A11831203133E08C90040
:100918003F08CA004008CB000330CD004D08CC008A
:100928008A15BB248A11831203133E08C9003F08A5
:10093800CA004008CB000430CD004D08CC008A1511
:10094800BB248A11831203133E08C9003F08CA005A
:100958004008CB000530CD004D08CC008A15BB24DB
:100968008A11831203133E08C9003F08CA004008D1
:10097800CB000630CD004D08CC008A15BB248A1167
:10098800831203133E08C9003F08CA004008CB0081
:100998000730CD004D08CC008A15BB248A1183127C
:1009A80003133E08C9003F08CA004008CB000830BE
:1009B800CD004D08CC008A15BB248A11831203137D
:1009C8003E08C9003F08CA004008CB000930CD00E6
:1009D8004D08CC008A15BB248A118A1120208A115F
:1009E8000D3083120313CE00FB30CD00CD0BFA2C53
:1009F800CE0BFA2C00008A1578248A11831203136F
:100A08003E08C9003F08CA004008CB00CC018A153F
:100A1800BB248A11831203133E08C9003F08CA0089
:100A28004008CB00CC01CC0A8A15BB248A1183125A
:100A380003133E08C9003F08CA004008CB00023033
:100A4800CD004D08CC008A15BB248A1183120313EC
:100A58003E08C9003F08CA004008CB000330CD005B
:100A68004D08CC008A15BB248A11831203133E0853
:100A7800C9003F08CA004008CB000430CD004D082B
:100A8800CC008A15BB248A11831203133E08C900BF
:100A98003F08CA004008CB000530CD004D08CC0007
:100AA8008A15BB248A11831203133E08C9003F0824
:100AB800CA004008CB000630CD004D08CC008A158E
:100AC800BB248A11831203133E08C9003F08CA00D9
:100AD8004008CB000730CD004D08CC008A15BB2458
:100AE8008A11831203133E08C9003F08CA00400850
:100AF800CB000830CD004D08CC008A15BB248A11E4
:100B0800831203133E08C9003F08CA004008CB00FF
:100B18000930CD004D08CC008A15BB248A118A11F2
:100B280020208A110D3083120313CE00FB30CD0034
:100B3800CD0B9C2DCE0B9C2D00008A1578248A1194
:100B4800831203133E08C9003F08CA004008CB00BF
:100B5800CC018A15BB248A11831203133E08C900ED
:100B68003F08CA004008CB00CC01CC0A8A15BB2438
:100B78008A118A1120208A110D3083120313CE00A6
:100B8800FB30CD00CD0BC62DCE0BC62D00008A152F
:100B980078248A11831203133E08C9003F08CA004B
:100BA8004008CB00CC018A15BB248A118312031399
:100BB8003E08C9003F08CA004008CB00CC01CC0A57
:100BC8008A15BB248A118A1120208A110D308312BC
:100BD8000313CE00FB30CD00CD0BF02DCE0BF02D46
:100BE80000008A1578248A11831203133E08C9006D
:100BF8003F08CA004008CB00CC018A15BB248A11E3
:100C0800831203133E08C9003F08CA004008CB00FE
:100C1800CC01CC0A8A15BB248A118A1120208A119A
:100C28000D3083120313CE00FB30CD00CD0B1A2EEE
:100C3800CE0B1A2E00008A1578248A11831203130A
:100C48003E08C9003F08CA004008CB00CC018A15FD
:100C5800BB248A11831203133E08C9003F08CA0047
:100C68004008CB00CC01CC0A8A15BB248A118A1112
:100C780020208A110D3083120313CE00FB30CD00E3
:100C8800CD0B442ECE0B442E00008A1578248A11F1
:100C9800831203133E08C9003F08CA004008CB006E
:100CA800CC018A15BB248A11831203133E08C9009C
:100CB8003F08CA004008CB00CC01CC0A8A15BB24E7
:100CC8008A118A1120208A110D3083120313CE0055
:100CD800FB30CD00CD0B6E2ECE0B6E2E00008A158C
:100CE80078248A11831203133E08C9003F08CA00FA
:100CF8004008CB00CC018A15BB248A118312031348
:100D08003E08C9003F08CA004008CB00CC01CC0A05
:100D18008A15BB248A118A1120208A110D3083126A
:100D28000313CE00FB30CD00CD0B982ECE0B982EA2
:100D380000008A1578248A11831203133E08C9001B
:100D48003F08CA004008CB00CC018A15BB248A1191
:100D5800831203133E08C9003F08CA004008CB00AD
:100D6800CC01CC0A8A15BB248A11831203133E08CE
:100D7800C9003F08CA004008CB000230CD004D082A
:100D8800CC008A15BB248A11831203133E08C900BC
:100D98003F08CA004008CB000330CD004D08CC0006
:100DA8008A15BB248A11831203133E08C9003F0821
:100DB800CA004008CB000430CD004D08CC008A158D
:100DC800BB248A11831203133E08C9003F08CA00D6
:100DD8004008CB000530CD004D08CC008A15BB2457
:100DE8008A11831203133E08C9003F08CA0040084D
:100DF800CB000630CD004D08CC008A15BB248A11E3
:100E0800831203133E08C9003F08CA004008CB00FC
:100E18000730CD004D08CC008A15BB248A118312F7
:100E280003133E08C9003F08CA004008CB00083039
:100E3800CD004D08CC008A15BB248A1183120313F8
:100E48003E08C9003F08CA004008CB000930CD0061
:100E58004D08CC008A15BB248A118A1120208A11DA
:100E68000D3083120313CE00FB30CD00CD0B3A2F8B
:100E7800CE0B3A2F00008A1578248A1183120313A7
:100E88003E08C9003F08CA004008CB00CC018A15BB
:100E9800BB248A11831203133E08C9003F08CA0005
:100EA8004008CB00CC01CC0A8A15BB248A118312D6
:100EB80003133E08C9003F08CA004008CB000230AF
:100EC800CD004D08CC008A15BB248A118312031368
:100ED8003E08C9003F08CA004008CB000330CD00D7
:100EE8004D08CC008A15BB248A11831203133E08CF
:100EF800C9003F08CA004008CB000430CD004D08A7
:100F0800CC008A15BB248A11831203133E08C9003A
:100F18003F08CA004008CB000530CD004D08CC0082
:100F28008A15BB248A11831203133E08C9003F089F
:100F3800CA004008CB000630CD004D08CC008A1509
:100F4800BB248A11831203133E08C9003F08CA0054
:100F58004008CB000730CD004D08CC008A15BB24D3
:100F68008A11831203133E08C9003F08CA004008CB
:100F7800CB000830CD004D08CC008A15BB248A115F
:100F8800831203133E08C9003F08CA004008CB007B
:100F98000930CD004D08CC008A15BB248A118A116E
:100FA80020208A110D3083120313CE00FB30CD00B0
:100FB800CD0BDC2FCE0BDC2F00008A1578248A118C
:100FC800343083120313CE00F130CD00CD0BEA2F5D
:100FD800CE0BEA2F0000080083134930FD000C30C7
:100FE800FE008330FF003E3084008A159E24CF0126
:080FF800D00183018A158E2C43
:1018F0000030F000F1001E30F2000030F300203024
:101900008A110420080000340034FF340034FF340E
:101910000034FF34003400341E34003483160313C3
:101920008F018701831203179E019F018A15D1241D
:101930008A15962C7E088A007F0882009A248A15D0
:101940008000840A04087D0603190034FF0A031985
:10195000FE0A9E2CF300F201731CB22C7008F100F9
:101960007108F2070310F00D0310F30C7308031D48
:10197000AC2C720808004930FC007C08F4000330ED
:10198000F5000030F6000330FD007D08F000831202
:1019900003134C088A15AA248A15203E8A11412077
:1019A0000800831203134408C9004508CA0046080A
:1019B000CB00CC018A15BB248A158312031344087B
:1019C000C9004508CA004608CB00CC01CC0A8A15DC
:1019D000BB248A15831203134408C9004508CA00B2
:1019E0004608CB000230CD004D08CC008A15BB2440
:1019F0008A15831203134408C9004508CA00460823
:101A0000CB000330CD004D08CC008A15BB248A15CD
:101A1000831203134408C9004508CA004608CB00D6
:101A20000430CD004D08CC008A15BB248A158312E2
:101A300003134408C9004508CA004608CB00053016
:101A4000CD004D08CC008A15BB248A1583120313E0
:101A50004408C9004508CA004608CB000630CD003E
:101A60004D08CC008A15BB248A1583120313440841
:101A7000C9004508CA004608CB000730CD004D0814
:101A8000CC008A15BB248A15831203134408C900AD
:101A90004508CA004608CB000830CD004D08CC00F0
:101AA0008A15BB2483128A155F2E03134408C900CC
:101AB0004508CA004608CB000730CD004D08CC00D1
:101AC0008A15BB248A15831203134408C9004508EC
:101AD000CA004608CB000830CD004D08CC008A155E
:101AE000BB248A15831203134408C9004508CA00A1
:101AF0004608CB000930CD004D08CC008A15BB2428
:101B00008A158A1120208A150D3083120313CE0006
:101B1000FB30CD00CD0B8A2DCE0B8A2D00008A150F
:101B200078248A15831203134408C9004508CA00A3
:101B30004608CB00CC018A15BB248A1583120313F7
:101B40004408C9004508CA004608CB00CC01CC0AAD
:101B50008A15BB248A15831203134408C90045085B
:101B6000CA004608CB000230CD004D08CC008A15D3
:101B7000BB248A15831203134408C9004508CA0010
:101B80004608CB000330CD004D08CC008A15BB249D
:101B90008A15831203134408C9004508CA00460881
:101BA000CB000430CD004D08CC008A15BB24831235
:101BB0008A116B2803134408C9004508CA00460867
:101BC000CB000730CD004D08CC008A15BB248A1508
:101BD000831203134408C9004508CA004608CB0015
:101BE0000830CD004D08CC008A15BB248A1583121D
:101BF00003134408C9004508CA004608CB00093051
:101C0000CD004D08CC008A15BB248A158A112020EE
:101C10008A150D3083120313CE00FB30CD00CD0B9F
:101C20000F2ECE0B0F2E00008A1578248A158312F2
:101C300003134408C9004508CA004608CB00CC017C
:101C40008A15BB248A15831203134408C90045086A
:101C5000CA004608CB00CC01CC0A8A15BB248A15E1
:101C60008A1120208A150D3083120313CE00FB3019
:101C7000CD00CD0B392ECE0B392E00008A157824DD
:101C80008A15831203134408C9004508CA00460890
:101C9000CB00CC018A15BB248A1583120313440898
:101CA000C9004508CA004608CB00CC01CC0A8A15F9
:101CB000BB248A158A1120200D308A15E42E0313C7
:101CC0004408C9004508CA004608CB000930CD00C9
:101CD0004D08CC008A15BB248A158A1120208A154C
:101CE0000D3083120313CE00FB30CD00CD0B762ECA
:101CF000CE0B762E00008A1578248A1583120313E2
:101D00004408C9004508CA004608CB00CC018A1522
:101D1000BB248A15831203134408C9004508CA006E
:101D20004608CB00CC01CC0A8A15BB248A15831245
:101D300003134408C9004508CA004608CB00023016
:101D4000CD004D08CC008A15BB248A1583120313DD
:101D50004408C9004508CA004608CB000330CD003E
:101D60004D08CC008A15BB248A158312031344083E
:101D7000C9004508CA004608CB000430CD004D0814
:101D8000CC008A15BB248A15831203134408C900AA
:101D90004508CA004608CB000530CD004D08CC00F0
:101DA0008A15BB248A15831203134408C900450809
:101DB000CA004608CB000630CD004D08CC008A157D
:101DC000BB2483128A15DA2D83120313CE00FB3055
:101DD000CD00CD0BE92ECE0BE92E00008A1578241C
:101DE0008A15831203134408C9004508CA0046082F
:101DF000CB00CC018A15BB248A1583120313440837
:101E0000C9004508CA004608CB00CC01CC0A8A1597
:101E1000BB248A158A1120208A150D3083120313E2
:101E2000CE00FB30CD00CD0B132FCE0B132F0000B7
:101E30008A1578248A15831203134408C9004508BB
:101E4000CA004608CB00CC018A15BB248A15831230
:101E500003134408C9004508CA004608CB00CC015A
:101E6000CC0A8A15BB248A158A1120208A150D30C8
:101E700083120313CE00FB30CD00CD0B3D2FCE0BD4
:101E80003D2F00008A1578248A1583120313440815
:101E9000C9004508CA004608CB00CC018A15BB24FE
:101EA0008A15831203134408C9004508CA0046086E
:101EB000CB00CC01CC0A8A15BB248A158A112020BC
:101EC0008A150D3083120313CE00FB30CD00CD0BED
:101ED000672FCE0B672F00008A15782483128A158E
:101EE000712F03134408C9004508CA004608CB00F7
:101EF000CC018A15BB248A15831203134408C90038
:101F00004508CA004608CB00CC01CC0A8A15BB2480
:101F10008A158A1120208A150D3083120313CE00F2
:101F2000FB30CD00CD0B922FCE0B922F00008A15E7
:101F300078248A15831203134408C9004508CA008F
:101F40004608CB00CC018A15BB248A1583120313E3
:101F50004408C9004508CA004608CB00CC01CC0A99
:101F60008A15BB248A15831203134408C900450847
:101F7000CA004608CB000230CD004D08CC008A15BF
:101F8000BB248A15831203134408C9004508CA00FC
:101F90004608CB000330CD004D08CC008A15BB2489
:101FA0008A15831203134408C9004508CA0046086D
:101FB000CB000430CD004D08CC008A15BB248A1517
:101FC000831203134408C9004508CA004608CB0021
:101FD0000530CD004D08CC008A15BB248A1583122C
:101FE00003134408C9004508CA004608CB00063060
:101FF000CD004D08CC008A15BB2483128A15552DBF
:02400E0092F02E
:00000001FF
